S0120000736D6172745F646F6F722E73726563D8
S11300000C942A000C9447000C9447000C9447006D
S11300100C9411050C943A050C9447000C94470079
S11300200C9447000C9447000C9447000C94470030
S11300300C9447000C9447000C9447000C94470020
S11300400C9447000C9447000C9447000C94470010
S11300500C94470011241FBECFE5D8E0DEBFCDBF0E
S113006010E0A0E6B0E0EAECFAE002C005900D92E0
S1130070A43BB107D9F720E0A4EBB0E001C01D9286
S1130080A23CB207E1F70E94CA020C9463050C94E7
S11300900000CF930E9451010E946E020E94FA0157
S11300A042E066E082E00E94CF02C0E00CC061E35F
S11300B06C0F8C2F0E94E40368E070E080E090E015
S11300C00E94D104CF5FC43090F3CF91089542E0F1
S11300D061E082E00E94CF0241E061E082E00E94A0
S11300E05303089542E061E082E00E94CF0240E0C1
S11300F061E082E00E94530308951F93CF93DF933E
S11301000E948E01882309F4BDC00E948A020E94C5
S11301109F0263E080E00E94B50280E690E00E94C6
S11301208F0260E081E00E94B502C0E010E010C0E0
S11301300E940502D82F0E94AA0260E070E08C2F72
S11301400E94050480910000D81301C01F5FCF5F97
S1130150C43070F31430A9F541E062E082E00E94FB
S1130160530340E064E082E00E9453030E949F0234
S113017060E080E00E94B50289E690E00E948F0270
S11301800E9460010E948E018111FCCF0E949F0297
S113019060E080E00E94B50289E790E00E948F024F
S11301A040E062E082E00E94530341E064E082E0C8
S11301B00E9453030E9477010E949F020E948502BD
S11301C06CC0143008F069C08091B4008F5F8093D4
S11301D0B4000E949F0263E080E00E94B50284E8BC
S11301E090E00E948F0260ED77E080E090E00E9452
S11301F0D1048091B400833008F44FC00E9467009A
S11302000E949F0260E080E00E94B5028EE890E0C8
S11302100E948F0241E064E082E00E9453030E9446
S1130220720064EF71E080E090E00E94D1040E94CB
S1130230670064EF71E080E090E00E94D1040E94C6
S1130240720064EF71E080E090E00E94D1040E94AB
S1130250670064EF71E080E090E00E94D1040E94A6
S1130260720064EF71E080E090E00E94D1040E948B
S113027067000E9472000E949F021092B4000E94C4
S113028085020BC00E948E01811107C00E94850265
S113029041E064E082E00E945303DF91CF911F911B
S11302A008950E94AA0464E081E00E94220483E18C
S11302B08093B9008091B9000E944B0480E00895B6
S11302C082E010C08091B9000E944B0462E370E0A8
S11302D080E090E00E947C048091B9008F5F80935D
S11302E0B90080E09091B9009E3760F3089583E0EF
S11302F010C08091B9000E944B0462E370E080E07A
S113030090E00E947C048091B90081508093B900F0
S113031080E09091B900933160F70895CF93DF9313
S11303201F92CDB7DEB7198240E060E880E00E94FA
S1130330CF02AE014F5F5F4F60E880E00E94A603EA
S113034089810F90DF91CF910895EF92FF920F93DF
S11303501F93CF93DF93D0E042C0ED2EF12CF70131
S1130360E055FF4F40E0608180E00E945303C0E00D
S11303702BC00C2F10E0F801E455FF4F40E050E093
S1130380608180E00E94A6038091000081111BC05F
S1130390C801880F991F800F911F80569F4FFC0141
S11303A0EE0DFF1DC08109C040E050E0F801E455A6
S11303B0FF4F608180E00E94A60390910000992382
S11303C099F38C2F10C0CF5FC43098F2F701E05539
S11303D0FF4F41E0608180E00E945303DF5FD33030
S11303E008F4BBCF8FEFDF91CF911F910F91FF9056
S11303F0EF90089541E06FE080E00E94CF0242E078
S113040060E780E00E94CF0208950E94A5018F3F1B
S1130410E1F30895CF93C82F42E060EE82E00E949A
S1130420CF0242E06FEF83E00E94CF0240E06FEF23
S113043083E00E94530340E060E282E00E945303A1
S113044040E060E482E00E94530341E06C2F83E0CB
S11304500E94530341E060E882E00E94530363E09A
S113046070E080E090E00E947C0440E060E882E07C
S11304700E945303CF910895CF93C82F42E060EEBA
S113048082E00E94CF0242E06FEF83E00E94CF023D
S113049040E06FEF83E00E94530341E060E282E0BA
S11304A00E94530340E060E482E00E94530341E071
S11304B06C2F83E00E94530341E060E882E00E94D5
S11304C0530363E070E080E090E00E947C0440E02D
S11304D060E882E00E945303CF91089568E270E0DF
S11304E080E090E00E947C0488E30E940A028FE08E
S11304F00E940A0281E00E940A0262E070E080E049
S113050090E00E947C0480E008958BE00E940A023F
S113051080E008958FE00E940A0280E00895CF935E
S1130520DF93EC0194E004C00E943C02219690E029
S113053088818111F9CF892FDF91CF91089581E0CE
S11305400E940A0262E070E080E090E00E947C0475
S113055080E00895CF93C82F0E943C02CC2311F071
S113056080E001C087E0CF910895CF93811104C04A
S1130570862F8068C0E009C0813029F480E4860FAA
S11305808068C0E002C080E0C6E00E940A028C2FAE
S1130590CF9108950E9449000E947D00FDCF8130D3
S11305A011F130F08230D1F1833009F452C06CC0C3
S11305B0413051F018F0423089F068C08AB3609538
S11305C068236ABB80E069C08AB3962F909589231B
S11305D08ABB8BB3682B6BBB80E05FC08AB3682B8C
S11305E06ABB80E05AC0413051F018F0423089F0C3
S11305F04FC087B36095682367BB80E04EC087B364
S1130600962F9095892387BB88B3682B68BB80E0BD
S113061044C087B3682B67BB80E03FC0413051F0D2
S113062018F0423089F036C084B36095682364BB07
S113063080E033C084B3962F9095892384BB85B31F
S1130640682B65BB80E029C084B3682B64BB80E061
S113065024C0413051F018F0423089F01DC081B3FC
S11306606095682361BB80E018C081B3962F909594
S1130670892381BB82B3682B62BB80E00EC081B347
S1130680682B61BB80E009C081E007C081E005C040
S113069081E003C081E001C081E0813011F483E096
S11306A0089580E008958130A9F028F0823009F19E
S11306B0833071F13CC0413029F48BB3682B6BBBA0
S11306C080E03EC0411135C08BB3609568236BBB9D
S11306D080E036C0413029F488B3682B68BB80E0E1
S11306E02FC0411128C088B36095682368BB80E09F
S11306F027C0413029F485B3682B65BB80E020C056
S113070041111BC085B36095682365BB80E018C0A8
S1130710413029F482B3682B62BB80E011C04111DF
S11307200EC082B36095682362BB80E009C081E09B
S113073007C081E005C081E003C081E001C081E021
S1130740813011F482E0089580E00895813091F0C1
S113075028F08230D9F0833031F131C089B3682375
S113076029F081E0FA01808380E02AC0FA01108236
S113077080E026C086B3682329F081E0FA018083F3
S113078080E01EC0FA01108280E01AC083B368239F
S1130790613029F481E0FA01808380E011C0FA011C
S11307A0108280E00DC080B3682329F081E0FA0153
S11307B0808380E005C0FA01108280E001C081E0FE
S11307C0813009F080E008950FB607FE05C09FB799
S11307D09F779FBF21E001C020E09FB79F779FBF15
S11307E0E199FECF8EBB6DBB8CB384608CBB8CB3A4
S11307F082608CBBE19B02C080E001C081E02130BB
S113080019F49FB790689FBF08950FB607FE05C0FF
S11308109FB79F779FBF91E001C090E0E199FECF21
S11308208EBB8CB381608CBBE09B02C080E001C0B6
S113083081E0913019F49FB790689FBF9DB3FB018D
S113084090830895CF93DF93C62F813041F493B7FB
S1130850906493BF93B7986093BFD0E001C0D1E098
S1130860823039F483B7806483BF83B7877F83BFC3
S1130870D0E042E068E081E00E94CF0283B78F7E3F
S113088083BF83B7806283BF83B7C82BC3BF8D2F59
S1130890DF91CF9108958CBF8CB780E0089580914B
S11308A0BE009091BF00A091C000B091C10001961C
S11308B0A11DB11D8093BE009093BF00A093C00002
S11308C0B093C1008091BE009091BF00A091C00080
S11308D0B091C100892B8A2B8B2B11F080E00895F5
S11308E085E0089580B7826080BF00B601FC02C035
S11308F080E0089584E00895CF92DF92EF92FF9212
S1130900CF936B017C018091B5009091B600892B47
S113091011F0C0E001C0C5E01092BE001092BF000B
S11309201092C0001092C1000E9472048091BE0017
S11309309091BF00A091C000B091C100C816D90623
S1130940EA06FB0698F78C2FCF91FF90EF90DF908B
S1130950CF9008958FB780688FBF85B58F7B85BD95
S113096085B5886085BD85B58F7E85BD85B58F7D50
S113097085BD89B7806889BF8AEF83BD85B58360EB
S113098085BD8FE494E09093B6008093B50080B762
S1130990826080BF85B5882311F080E0089585E0EA
S11309A008950F931F938B019C011092BA0010922B
S11309B0BB001092BC001092BD0014BC16C084B5DC
S11309C08A3F99F48091BA009091BB00A091BC0039
S11309D0B091BD000196A11DB11D8093BA00909302
S11309E0BB00A093BC00B093BD004091BA005091ED
S11309F0BB006091BC007091BD00D901C801880F93
S1130A00991FAA1FBB1F481759076A077B07B8F22B
S1130A1084B5882311F080E001C085E01F910F9117
S1130A2008951F920F920FB60F9211242F933F93A4
S1130A304F935F936F937F938F939F93AF93BF93E2
S1130A40EF93FF93E091B500F091B600309709F071
S1130A500995FF91EF91BF91AF919F918F917F91F4
S1130A606F915F914F913F912F910F900FBE0F9017
S1130A701F9018951F920F920FB60F9211242F9367
S1130A803F934F935F936F937F938F939F93AF9312
S1130A90BF93EF93FF93E091B700F091B8003097C4
S1130AA009F00995FF91EF91BF91AF919F918F91BB
S1130AB07F916F915F914F913F912F910F900FBE56
S10D0AC00F901F901895F894FFCFD3
S1130ACA454E5445522050570057454C434F4D45C7
S1130ADA204D4F484945202100434C4F53494E4726
S1130AEA2021210057524F4E472050494E004E4F65
S1130AFA204D4F524520545259494E472021210036
S1130B0A3132333435363738392A3023010204086E
S1070B1A1020400063
S9030000FC
